:020000001528C1
:0C000600831235088A00340882000800CC
:1000120003208A110A128000840AB40A0319B50A5D
:08002200C003031D09280800BA
:10002A00B8208312B601B7018030C000803037068D
:10003A004002031D22283608093C031C8928B801FE
:10004A00B9018030C000803039064002031D2F28D4
:10005A003808093C031C8528BA01BB018030C0005E
:10006A0080303B064002031D3C283A08093C031C29
:10007A0081288316850186013608C0003708C10029
:10008A00C00DC10D401040080C3E840000088312C8
:10009A0086008501013085003808C0003908C10092
:1000AA00C00DC10D401040080C3E840000088600B7
:1000BA008501023085003A08C0003B08C100C00D26
:1000CA00C10D40104008203E8400000886008501CA
:1000DA00043085000630CB001330CC00AD30CD00A3
:1000EA00CD0B7528CC0B7528CB0B752800000000AA
:1000FA00BA0A0319BB0A3328B80A0319B90A262807
:0A010A00B60A0319B70A192889285C
:100170000C30840028308312C0008F30B40000306F
:06018000B5000920080093
:10011E003F340034063400345B3400344F34003442
:10012E00663400346D3400347D34003407340034CA
:08013E007F3400346F340034FB
:10014600C0340034F9340034A4340034B0340034FC
:10015600993400349234003482340034F834003454
:080166008034003490340034B1
:02400E00FA3F77
:00000001FF
